{
  "_format": "hh-sol-artifact-1",
  "contractName": "Domains",
  "sourceName": "contracts/Domains.sol",
  "abi": [
    {
      "inputs": [],
      "stateMutability": "nonpayable",
      "type": "constructor"
    },
    {
      "inputs": [
        {
          "internalType": "string",
          "name": "",
          "type": "string"
        }
      ],
      "name": "domains",
      "outputs": [
        {
          "internalType": "address",
          "name": "",
          "type": "address"
        }
      ],
      "stateMutability": "view",
      "type": "function"
    },
    {
      "inputs": [
        {
          "internalType": "string",
          "name": "name",
          "type": "string"
        }
      ],
      "name": "getAddress",
      "outputs": [
        {
          "internalType": "address",
          "name": "",
          "type": "address"
        }
      ],
      "stateMutability": "view",
      "type": "function"
    },
    {
      "inputs": [
        {
          "internalType": "string",
          "name": "name",
          "type": "string"
        }
      ],
      "name": "getRecord",
      "outputs": [
        {
          "internalType": "string",
          "name": "",
          "type": "string"
        }
      ],
      "stateMutability": "view",
      "type": "function"
    },
    {
      "inputs": [
        {
          "internalType": "string",
          "name": "",
          "type": "string"
        }
      ],
      "name": "records",
      "outputs": [
        {
          "internalType": "string",
          "name": "",
          "type": "string"
        }
      ],
      "stateMutability": "view",
      "type": "function"
    },
    {
      "inputs": [
        {
          "internalType": "string",
          "name": "name",
          "type": "string"
        }
      ],
      "name": "register",
      "outputs": [],
      "stateMutability": "nonpayable",
      "type": "function"
    },
    {
      "inputs": [
        {
          "internalType": "string",
          "name": "name",
          "type": "string"
        },
        {
          "internalType": "string",
          "name": "record",
          "type": "string"
        }
      ],
      "name": "setRecord",
      "outputs": [],
      "stateMutability": "nonpayable",
      "type": "function"
    }
  ],
  "bytecode": "0x60806040523480156200001157600080fd5b506200004160405180606001604052806025815260200162000df7602591396200004760201b620005241760201c565b620001db565b620000e7816040516024016200005e9190620001b7565b6040516020818303038152906040527f41304fac000000000000000000000000000000000000000000000000000000007bffffffffffffffffffffffffffffffffffffffffffffffffffffffff19166020820180517bffffffffffffffffffffffffffffffffffffffffffffffffffffffff8381831617835250505050620000ea60201b60201c565b50565b60008151905060006a636f6e736f6c652e6c6f679050602083016000808483855afa5050505050565b600081519050919050565b600082825260208201905092915050565b60005b838110156200014f57808201518184015260208101905062000132565b838111156200015f576000848401525b50505050565b6000601f19601f8301169050919050565b6000620001838262000113565b6200018f81856200011e565b9350620001a18185602086016200012f565b620001ac8162000165565b840191505092915050565b60006020820190508181036000830152620001d3818462000176565b905092915050565b610c0c80620001eb6000396000f3fe608060405234801561001057600080fd5b50600436106100625760003560e01c806311dd8845146100675780632644923514610097578063541e771d146100c7578063bf40fac1146100f7578063c1880a9814610127578063f2c298be14610143575b600080fd5b610081600480360381019061007c919061079e565b61015f565b60405161008e9190610884565b60405180910390f35b6100b160048036038101906100ac91906109d6565b610212565b6040516100be9190610a60565b60405180910390f35b6100e160048036038101906100dc91906109d6565b61025b565b6040516100ee9190610884565b60405180910390f35b610111600480360381019061010c919061079e565b610311565b60405161011e9190610a60565b60405180910390f35b610141600480360381019061013c9190610a7b565b61035b565b005b61015d6004803603810190610158919061079e565b610409565b005b606060018383604051610173929190610b2c565b9081526020016040518091039020805461018c90610b74565b80601f01602080910402602001604051908101604052809291908181526020018280546101b890610b74565b80156102055780601f106101da57610100808354040283529160200191610205565b820191906000526020600020905b8154815290600101906020018083116101e857829003601f168201915b5050505050905092915050565b6000818051602081018201805184825260208301602085012081835280955050505050506000915054906101000a900473ffffffffffffffffffffffffffffffffffffffff1681565b600181805160208101820180518482526020830160208501208183528095505050505050600091509050805461029090610b74565b80601f01602080910402602001604051908101604052809291908181526020018280546102bc90610b74565b80156103095780601f106102de57610100808354040283529160200191610309565b820191906000526020600020905b8154815290600101906020018083116102ec57829003601f168201915b505050505081565b6000808383604051610324929190610b2c565b908152602001604051809103902060009054906101000a900473ffffffffffffffffffffffffffffffffffffffff16905092915050565b3373ffffffffffffffffffffffffffffffffffffffff1660008585604051610384929190610b2c565b908152602001604051809103902060009054906101000a900473ffffffffffffffffffffffffffffffffffffffff1673ffffffffffffffffffffffffffffffffffffffff16146103d357600080fd5b8181600186866040516103e7929190610b2c565b90815260200160405180910390209190610402929190610682565b5050505050565b600073ffffffffffffffffffffffffffffffffffffffff1660008383604051610433929190610b2c565b908152602001604051809103902060009054906101000a900473ffffffffffffffffffffffffffffffffffffffff1673ffffffffffffffffffffffffffffffffffffffff161461048257600080fd5b3360008383604051610495929190610b2c565b908152602001604051809103902060006101000a81548173ffffffffffffffffffffffffffffffffffffffff021916908373ffffffffffffffffffffffffffffffffffffffff1602179055506105206040518060400160405280601b81526020017f2573206861732072656769737465726564206120646f6d61696e210000000000815250336105bd565b5050565b6105ba816040516024016105389190610884565b6040516020818303038152906040527f41304fac000000000000000000000000000000000000000000000000000000007bffffffffffffffffffffffffffffffffffffffffffffffffffffffff19166020820180517bffffffffffffffffffffffffffffffffffffffffffffffffffffffff8381831617835250505050610659565b50565b61065582826040516024016105d3929190610ba6565b6040516020818303038152906040527f319af333000000000000000000000000000000000000000000000000000000007bffffffffffffffffffffffffffffffffffffffffffffffffffffffff19166020820180517bffffffffffffffffffffffffffffffffffffffffffffffffffffffff8381831617835250505050610659565b5050565b60008151905060006a636f6e736f6c652e6c6f679050602083016000808483855afa5050505050565b82805461068e90610b74565b90600052602060002090601f0160209004810192826106b057600085556106f7565b82601f106106c957803560ff19168380011785556106f7565b828001600101855582156106f7579182015b828111156106f65782358255916020019190600101906106db565b5b5090506107049190610708565b5090565b5b80821115610721576000816000905550600101610709565b5090565b6000604051905090565b600080fd5b600080fd5b600080fd5b600080fd5b600080fd5b60008083601f84011261075e5761075d610739565b5b8235905067ffffffffffffffff81111561077b5761077a61073e565b5b60208301915083600182028301111561079757610796610743565b5b9250929050565b600080602083850312156107b5576107b461072f565b5b600083013567ffffffffffffffff8111156107d3576107d2610734565b5b6107df85828601610748565b92509250509250929050565b600081519050919050565b600082825260208201905092915050565b60005b8381101561082557808201518184015260208101905061080a565b83811115610834576000848401525b50505050565b6000601f19601f8301169050919050565b6000610856826107eb565b61086081856107f6565b9350610870818560208601610807565b6108798161083a565b840191505092915050565b6000602082019050818103600083015261089e818461084b565b905092915050565b600080fd5b7f4e487b7100000000000000000000000000000000000000000000000000000000600052604160045260246000fd5b6108e38261083a565b810181811067ffffffffffffffff82111715610902576109016108ab565b5b80604052505050565b6000610915610725565b905061092182826108da565b919050565b600067ffffffffffffffff821115610941576109406108ab565b5b61094a8261083a565b9050602081019050919050565b82818337600083830152505050565b600061097961097484610926565b61090b565b905082815260208101848484011115610995576109946108a6565b5b6109a0848285610957565b509392505050565b600082601f8301126109bd576109bc610739565b5b81356109cd848260208601610966565b91505092915050565b6000602082840312156109ec576109eb61072f565b5b600082013567ffffffffffffffff811115610a0a57610a09610734565b5b610a16848285016109a8565b91505092915050565b600073ffffffffffffffffffffffffffffffffffffffff82169050919050565b6000610a4a82610a1f565b9050919050565b610a5a81610a3f565b82525050565b6000602082019050610a756000830184610a51565b92915050565b60008060008060408587031215610a9557610a9461072f565b5b600085013567ffffffffffffffff811115610ab357610ab2610734565b5b610abf87828801610748565b9450945050602085013567ffffffffffffffff811115610ae257610ae1610734565b5b610aee87828801610748565b925092505092959194509250565b600081905092915050565b6000610b138385610afc565b9350610b20838584610957565b82840190509392505050565b6000610b39828486610b07565b91508190509392505050565b7f4e487b7100000000000000000000000000000000000000000000000000000000600052602260045260246000fd5b60006002820490506001821680610b8c57607f821691505b60208210811415610ba057610b9f610b45565b5b50919050565b60006040820190508181036000830152610bc0818561084b565b9050610bcf6020830184610a51565b939250505056fea264697066735822122031d789e4cace5c91371f3471d1675675e6b1df2612bc22837fed3cfbe5bafe5464736f6c634300080a0033596f20796f2c204920616d206120636f6e747261637420616e64204920616d20736d617274",
  "linkReferences": {},
  "deployedLinkReferences": {}
}